:060000000A128A1110280B
:10000800FE00030EF8000408F9000A08FA007F0849
:10001800FB000A168A117D2C0A128A1113280A126B
:100028008A11FC270A128A11EF0083179030840086
:10003800CE300A168A119A230A128A1110308400C7
:1000480050300A168A119A230A128A118313E03053
:100058008400EE300A168A119A230A128A11663031
:1000680084006E300A168A119A230A128A11FC013A
:10007800FD0183010A128A116B2B831203132F08C7
:10008800B7003008B8003108B9003208BA003308A0
:10009800B7023408031C340F52285328B802350815
:1000A800031C350F58285928B9023608031C360F87
:1000B8005E285F28BA020A300310B70DB80DB90DD3
:1000C800BA0DFF3E031D60283A08DD003908DC0040
:1000D8003808DB003708DA002D08083EB7002E087C
:1000E8000318013E003EB800370884008317381C07
:1000F80083130008B900840A0008BA00840A0008BB
:10010800BB00840A0008BC002D08840083172E1C3D
:1001180083130008BD00840A0008BE00840A000892
:10012800BF00840A0008C0002D080C3EC1002E083C
:100138000318013E003EC200410884008317421C98
:1001480083130008C300C401C501C6014608A30003
:100158004508A2004408A1004308A0002D08043E59
:10016800C7002E080318013E003EC8004708840057
:100178008317481C83130008A400840A0008A500FC
:10018800840A0008A600840A0008A7000A128A1137
:10019800B4270A128A11831203132008BD07210805
:1001A8000318210FD828D928BE0722080318220FC0
:1001B800DE28DF28BF0723080318230AC0073D08E5
:1001C800B9073E0803183E0FEA28EB28BA073F088C
:1001D80003183F0FF028F128BB0740080318400A0E
:1001E800BC073C08CD003B08CC003A08CB003908D6
:1001F800CA002D08840083172E1C83130008B7003B
:10020800840A0008B800840A0008B900840A0008B3
:10021800BA002D08083EBB002E080318013E003E18
:10022800BC003B08840083173C1C83130008BD00F6
:10023800840A0008BE00840A0008BF00840A000877
:10024800C00001300310BD0DBE0DBF0DC00DFF3E37
:10025800031D26293D08B7073E0803183E0F352918
:100268003629B8073F0803183F0F3B293C29B9072F
:1002780040080318400ABA073709CE003809CF00EA
:100288003909D0003A09D100CE0A0319CF0A031957
:10029800D00A0319D10A2D08083EB7002E08031802
:1002A800013E003EB800370884008317381C8313CA
:1002B8000008B900840A0008BA00840A0008BB00D4
:1002C800840A0008BC000A30BD003C0DBC0CBB0C05
:1002D800BA0CB90CBD0B69293C08D5003B08D40001
:1002E8003A08D3003908D2002D08113EB7002E086D
:1002F8000318013E003EB800370884008317381CF5
:1003080083130008A000840A0008A100840A0008DA
:10031800A200840A0008A3005508A7005408A600F4
:100328005308A5005208A4000A128A11B4270A1219
:100338008A11831203132008B9002108BA00220881
:10034800BB002308BC000A30BD003C0DBC0CBB0C34
:10035800BA0CB90CBD0BA9292D080D3EBE002E08FC
:100368000318013E003EBF003E08840083173F1C6F
:1003780083130008A000840A0008A100840A00086A
:10038800A200840A0008A3005108A7005008A6008C
:100398004F08A5004E08A4000A128A11B4270A12B1
:1003A8008A11831203132008C0002108C100220803
:1003B800C2002308C3000A30C400430DC30CC20C9A
:1003C800C10CC00CC40BE1294D08A3004C08A200C5
:1003D8004B08A1004A08A0005D08A7005C08A60019
:1003E8005B08A5005A08A4000A128A11B4270A1249
:1003F8008A11831203132008C5002108C6002208A9
:10040800C7002308C8000A30C900480DC80CC70C2B
:10041800C60CC50CC90B092A4508C00746080318AD
:10042800460F172A182AC10747080318470F1D2A1D
:100438001E2AC20748080318480AC3074008B90714
:1004480041080318410F292A2A2ABA074208031823
:10045800420F2F2A302ABB0743080318430ABC0758
:100468003C08D9003B08D8003A08D7003908D6001C
:100478005608B7005708B8005808B9005908BA0014
:100488002D08153EBB002E080318013E003EBC0097
:100498003B08840083173C1C83130008BD00840AB2
:1004A8000008BE00840A0008BF00840A0008C000D3
:1004B8003D08B7073E0803183E0F632A642AB807A9
:1004C8003F0803183F0F692A6A2AB907400803182A
:1004D800400ABA073A08E1003908E0003808DF00A6
:1004E8003708DE002D08193EB7002E080318013E14
:1004F800003EB800370884008317381C83130008AF
:10050800B900840A0008BA00840A0008BB00840AFB
:100518000008BC006108803AFF003C08803A7F026E
:10052800031DA02A3B086002031DA02A3A085F02A7
:10053800031DA02A39085E020318A32AA42ABC2A8C
:100548002D08193EB7002E080318013E003EB800DA
:10055800370884008317381C83130008DE00840AD8
:100568000008DF00840A0008E000840A0008E100AF
:100578002D081D3EB7002E080318013E003EB800A6
:10058800370884008317381C83130008B900840ACD
:100598000008BA00840A0008BB00840A0008BC00EE
:1005A8003C08803AFF006108803A7F02031DE62A72
:1005B80060083B02031DE62A5F083A02031DE62A8B
:1005C8005E0839020318E92AEA2A022B2D081D3E83
:1005D800B7002E080318013E003EB8003708840013
:1005E8008317381C83130008DE00840A0008DF0024
:1005F800840A0008E000840A0008E1002D080D3E86
:10060800B7002E080318013E003EB80037088400E2
:100618008317381C83130008B900840A0008BA003D
:10062800840A0008BB00840A0008BC002D08113E9B
:10063800BD002E080318013E003EBE003D088400A0
:1006480083173E1C831339088000840A3A08800007
:10065800840A3B088000840A3C0880002D080D3E6F
:10066800B7002E080318013E003EB8003708840082
:100678008317381C83135A088000840A5B0880009B
:10068800840A5C088000840A5D0880002D08153EF5
:10069800B7002E080318013E003EB8003708840052
:1006A8008317381C83135E088000840A5F08800063
:1006B800840A60088000840A610880006108B0002C
:1006C8006008AF005F08AE005E08AD0008000A16BB
:1006D8008A115F240A128A110A168A11BF240A1283
:1006E8008A1183120313230883160313B400831299
:1006F8000313220883160313B3008312031321087C
:1007080083160313B20083120313200883160313FE
:10071800B100AC01BF3083120313A0000030A10068
:100728000030A5000030A4000030A3000230A20071
:100738000030A9000030A8000030A7000130A60052
:100748000030AD000030AC000030AB000130AA0032
:100758000A30AE000030B2000030B1000030B00006
:100768000030AF000030B6000030B5000330B400F0
:10077800E830B3000A128A156F240A128A11003071
:1007880083160313B8000030B7000030B6000030FD
:10079800B50083120313CB01CC01CC0A08080A1652
:1007A8008A112E250A128A1183160313B901BA0178
:1007B8000030AB000030AA000030A9000030A800CB
:1007C8000030A7000030A6000030A5006430A40067
:1007D800003083120313BB00BC0001300A128A15D3
:1007E800C1210A128A1183120313A001A101A10ACF
:1007F80006080A128A1172260A128A119C2C0A16F5
:100808008A11BF240A128A11831203132008E200F6
:100818002108E3002208E4002308E50083160313F7
:10082800310883120313E202831603133208031CF0
:10083800320F1F2C222C83120313E3028316031397
:100848003308031C330F292C2C2C83120313E402C6
:10085800831603133408031C340F332C362C8312ED
:100868000313E50283160313831203136508831623
:100878000313BE0083120313640883160313BD0019
:1008880083120313630883160313BC008312031334
:10089800620883160313BB003E08031D602C3D0845
:1008A800031D602C3C08031D602C64303B02031DB3
:1008B8005D2C0318602C612C622C9C2C8312031372
:1008C800A00106080A128A15A2200A128A11013A02
:1008D800031D6F2C702C892C013083160313BA006A
:1008E800003083120313C9000030C8000030C7006D
:1008F8000030C6000A128A155E250A128A110A16E5
:100908008A1112240A128A11672E003083120313E7
:10091800C9000030C8000130C7002C30C6000A12D8
:100928008A155E250A128A11013083160313B9004D
:10093800831603133A080319A22CA32C032C672E41
:100948000A168A11BF240A128A1183120313200877
:10095800E2002108E3002208E4002308E5008316EA
:100968000313310883120313E202831603133208B8
:10097800031C320FC02CC32C83120313E30283160B
:1009880003133308031C330FCA2CCD2C8312031313
:10099800E402831603133408031C340FD42CD72C19
:1009A80083120313E50283160313831203136508E6
:1009B80083160313BE0083120313640883160313FC
:1009C800BD0083120313630883160313BC0083124C
:1009D8000313620883160313BB003E08031D012D91
:1009E8003D08031D012D3C08031D012D02303B026B
:1009F800031DFE2C0318012D022D092D8316031348
:100A08002C08031D082D092D992D0A168A119327E4
:100A18000A128A11831203133F0883160313B000C6
:100A2800831203133E0883160313AF0083120313C4
:100A38003D0883160313AE00831203133C08831684
:100A48000313AD00BF3083120313AD000030AE00B6
:100A580083160313380883120313B2008316031393
:100A6800370883120313B100831603133608831261
:100A78000313B00083160313350883120313AF0062
:100A880083160313300883120313B6008316031367
:100A98002F0883120313B500831603132E0883123D
:100AA8000313B400831603132D0883120313B30032
:100AB8000A128A1141200A128A118312031330087C
:100AC80083160313A300831203132F08831603133B
:100AD800A200831203132E0883160313A1008312A6
:100AE80003132D0883160313A0002308831203138E
:100AF800C90083160313220883120313C800831640
:100B08000313210883120313C70083160313200855
:100B180083120313C6000A128A155E250A128A1167
:100B28000A3083160313AC00CA2D3E08031DAA2DF4
:100B38003D08031DAA2D3C08031DAA2D0A303B02BF
:100B4800031DA62D031CA92DAA2DCA2D8316031338
:100B5800AC010A168A11BF240A128A1183120313E0
:100B6800230883160313B400831203132208831681
:100B78000313B30083120313210883160313B2006F
:100B880083120313200883160313B1000A168A116F
:100B9800BF240A128A11831203132008E2002108D5
:100BA800E3002208E4002308E5008316031328085D
:100BB80083120313E202831603132908031C290F67
:100BC800E62DE92D83120313E302831603132A0883
:100BD800031C2A0FF02DF32D83120313E40283164E
:100BE80003132B08031C2B0FFA2DFD2D831203135F
:100BF800E5028316031383120313831603132708CE
:100C0800831203136502031D1F2E83160313260880
:100C1800831203136402031D1F2E83160313250872
:100C2800831203136302031D1F2E83160313240864
:100C3800831203136202031C222E232E672EBF3059
:100C4800CB000030CC008316031330088312031343
:100C5800D000831603132F0883120313CF008316C3
:100C680003132E0883120313CE00831603132D08D3
:100C780083120313CD00B530D100B930D200BA3099
:100C8800D3000A128A1570260A128A110A168A11C6
:100C9800BF240A128A11831203132308831603132D
:100CA800AB0083120313220883160313AA008312CE
:100CB8000313210883160313A900831203132008C2
:100CC80083160313A80083160313390303196D2E23
:100CD8006E2EA42C9C2C0A128A111028831203133E
:100CE800A4009A2F0430200203187B2E7C2E8B2E12
:100CF8000130A200200A822E0310A20DFF3E031D20
:100D0800802E2208FF3A831603178805952E053092
:100D18002006031D902E912E952EEF308316031773
:100D28008805831203132103031D9B2E9C2EAA2ED4
:100D38000130A200200AA22E0310A20DFF3E031DBF
:100D4800A02E2208831603138504B32F0130A200B6
:100D5800200AB02E0310A20DFF3E031DAE2E22085E
:100D6800FF3A831603138505B32F2008031DBD2EF4
:100D7800BE2EC32EEF30831603178905F82E2003E5
:100D8800031DC72EC82ECD2EFB30831603178905E9
:100D9800F82E02302006031DD22ED32ED82EFE3078
:100DA800831603178905F82E03302006031DDD2E50
:100DB800DE2EE32EFD30831603178905F82E043046
:100DC8002006031DE82EE92EEE2EF73083160317B2
:100DD8008905F82E05302006031DF32EF42EF82E73
:100DE800DF30831603178905831203132103031DBC
:100DF800FE2EFF2E0D2F0130A200200A052F031012
:100E0800A20DFF3E031D032F220883160313860439
:100E1800B32F0130A200200A132F0310A20DFF3EAA
:100E2800031D112F2208FF3A831603138605B32FDB
:100E38002103031D202F212F2F2F0130A200200A6C
:100E4800272F0310A20DFF3E031D252F220883160E
:100E580003138704B32F0130A200200A352F031093
:100E6800A20DFF3E031D332F2208FF3A83160313FA
:100E78008705B32F2103031D422F432F512F013024
:100E8800A200200A492F0310A20DFF3E031D472F81
:100E98002208831603138804B32F0130A200200A06
:100EA800572F0310A20DFF3E031D552F2208FF3AAE
:100EB800831603138805B32F033020020318652F08
:100EC800662F762F0130A2002008053E013E6E2FC6
:100ED8000310A20DFF3E031D6C2F2208FF3A831654
:100EE80003178805831203132103031D7C2F7D2F0D
:100EF8008B2F0130A200200A832F0310A20DFF3E82
:100F0800031D812F2208831603138904B32F013090
:100F1800A200200A912F0310A20DFF3E031D8F2F60
:100F28002208FF3A831603138905B32F2408A20069
:100F3800A3012308003A0319A22FB32F2208003A6D
:100F48000319762E013A0319B92E033A03191C2FF7
:100F5800013A03193E2F073A0319602FB32F0800EF
:100F6800003083120313AC000030AB000030AA003D
:100F78000030A900201CC12FC22FD92F2408A9078F
:100F8800250803110318013E0319CB2FAA072608C9
:100F980003110318013E0319D22FAB0727080311C9
:100FA8000318013E0319D92FAC070130A80003101C
:100FB800A40DA50DA60DA70DA80BDB2F013003105E
:100FC800A30CA20CA10CA00CFF3E031DE32F2308C9
:100FD800220421042004031DF22FF32FBE2F2C0816
:100FE800A3002B08A2002A08A1002908A0000800D5
:080FF8000E3408000800080097
:10100A001C282208FF00210884000A168A110020E1
:10101A000A128A150A168A11AB230A128A15013096
:10102A0083120313A1070318A20A0030A20783122E
:10103A0003132208FF00210884000A168A110020DF
:10104A000A128A15003A031D2B282C2806280800A4
:10105A0083120313AB01AC01AA0135280130A6079C
:10106A002608840020308317000603193D283E28ED
:10107A00332826088400F7300007A8000530280224
:10108A00031C482849283328260884002D300006E6
:10109A00031D5028512856280130AA000130A607FE
:1010AA008128260884002B300006031D5D285E284F
:1010BA0081285328260884002C08A1002B08A000A8
:1010CA000A30A2000030A3000A168A1107250A1264
:1010DA008A15831203132108A90083170008200226
:1010EA00A800031CA9032808303EAB0029080318EE
:1010FA00013E003EAC00532826088400D030000789
:10110A00A8000A302802031C8B288C285F282A088A
:10111A00031D902891289D282B09A8002C09A900B5
:10112A00A80A0319A90A2808A6002908A700A128BD
:10113A002C08A7002B08A600080083120313A3009B
:10114A0007290130A100200AAC280310A10DFF3E97
:10115A00031DAA2821080505031DB428B628013055
:10116A00B7280030A40020290130A100200ABF2896
:10117A000310A10DFF3E031DBD2821080605031D0E
:10118A00C728C9280130CA280030A4002029013004
:10119A00A100200AD2280310A10DFF3E031DD0286A
:1011AA0021080705031DDA28DC280130DD28003074
:1011BA00A40020290130A100200AE5280310A10D6E
:1011CA00FF3E031DE32821080805031DED28EF282B
:1011DA000130F0280030A40020290130A100200AA3
:1011EA00F8280310A10DFF3E031DF6282108090562
:1011FA00031D00290229013003290030A4002029F7
:10120A00003027292308A100A2012208003A031965
:10121A000F2905292108003A0319A628013A0319BA
:10122A00B928033A0319CC28013A0319DF28073AE7
:10123A000319F22805292408031D24292629013027
:10124A0027290030080083120313B701B01F2E2983
:10125A002F293C29AD09AE09AF09B009AD0A031916
:10126A00AE0A0319AF0A0319B00A0130B700B41F56
:10127A003F2940294D29B109B209B309B409B10A74
:10128A000319B20A0319B30A0319B40A0130B706DB
:10129A000030BB000030BA000030B9000030B8009E
:1012AA0030082F042E042D0403195C295D29A8296E
:1012BA000130B6006B290130B5000310AD0DAE0D3B
:1012CA00AF0DB00DB50B62290130B607B01F6E29FC
:1012DA006F2960290130B5000310B80DB90DBA0D98
:1012EA00BB0DB50B712930083402031D86292F085E
:1012FA003302031D86292E083202031D86292D0872
:10130A003102031C89298A2999292D08B1022E083C
:10131A00031C2E0FB2022F08031C2F0FB302300832
:10132A00031C300FB402381401300310B00CAF0C98
:10133A00AE0CAD0CFF3E031D9A290130B602031D07
:10134A00A729A8296F2937080319AC29AD29B82973
:10135A00B809B909BA09BB09B80A0319B90A0319BC
:10136A00BA0A0319BB0A3B08B0003A08AF003908A9
:10137A00AE003808AD00080083120313C30003301F
:10138A003C02E93003193B02031CCC29CD29D1299F
:10139A00E830BB000330BC000030B0000030AF00C2
:1013AA000330AE00E830AD003B08A0003C08A100C5
:1013BA00A201A301831603136C0883120313A4006A
:1013CA00831603136D0883120313A500A601A70150
:1013DA000A128A11B4270A128A15831203132308E0
:1013EA00B4002208B3002108B2002008B1000A168E
:1013FA008A11C6260A128A15831203133008C200FC
:10140A002F08C1002E08C0002D08BF004008C500E3
:10141A003F08C4004303031D132A142A352A45082A
:10142A00BE004408BD000310BE0CBD0C0310BE0C68
:10143A00BD0C3D089500C418232A272A83120313DA
:10144A0097162A2A83120313971244182D2A312A2F
:10145A00831203131716342A8312031317125B2AF3
:10146A0002304306031D3A2A3B2A5B2A4508BE007E
:10147A004408BD000310BE0CBD0C0310BE0CBD0C0D
:10148A003D089B00C4184A2A4E2A831203139D164C
:10149A00512A831203139D124418542A582A83127C
:1014AA0003131D165B2A831203131D1208008316E9
:1014BA0003138710071183120313871007110C30C7
:1014CA0097000C309D001208FC3902389200FF3058
:1014DA00BF00FF30C000FF30C100FF30C2003B0830
:1014EA00C3003C08C4003D08C5003E08C6000230DF
:1014FA000310C30DC40DC50DC60DFF3E031D7D2A85
:10150A0004300310C30DC40DC50DC60DFF3E031DE7
:10151A00862A4608B0004508AF004408AE004308D2
:10152A00AD000130B4003130B3002D30B2000030CC
:10153A00B1000A168A11C6260A128A1583120313E3
:10154A002D08BF072E0803182E0FAC2AAD2AC00794
:10155A002F0803182F0FB22AB32AC107300803181D
:10156A00300AC2074208CA004108C9004008C80038
:10157A003F08C7004A08031DD12A4908031DD12A7A
:10158A0001304802031DCD2A00304702031DCD2A2F
:10159A00031CD02AD12ADB2A003083120313CA0083
:1015AA000030C9000030C800FF30C700831203139F
:1015BA004708831603139200120883120313BF000D
:1015CA00C0010310BF0DC00D0310BF0DC00D3F08B1
:1015DA00043EC10040080318013E003EC200410813
:1015EA0083160313EC0083120313420883160313B2
:1015FA00ED008312031395019B0112150800831253
:10160A000313A4009E2B2103031D0C2B0D2B192B56
:10161A000130A200200A132B0310A20DFF3E031D66
:10162A00112B22088504B72B0130A200200A1F2B98
:10163A000310A20DFF3E031D1D2B2208FF3A85054C
:10164A00B72B2103031D2A2B2B2B372B0130A2008A
:10165A00200A312B0310A20DFF3E031D2F2B220857
:10166A008604B72B0130A200200A3D2B0310A20DDD
:10167A00FF3E031D3B2B2208FF3A8605B72B2103A9
:10168A00031D482B492B552B0130A200200A4F2B52
:10169A000310A20DFF3E031D4D2B22088704B72B12
:1016AA000130A200200A5B2B0310A20DFF3E031D8E
:1016BA00592B2208FF3A8705B72B2103031D662BF6
:1016CA00672B732B0130A200200A6D2B0310A20D89
:1016DA00FF3E031D6B2B22088804B72B0130A200A2
:1016EA00200A792B0310A20DFF3E031D772B220837
:1016FA00FF3A8805B72B2103031D842B852B912BD9
:10170A000130A200200A8B2B0310A20DFF3E031DFD
:10171A00892B22088904B72B0130A200200A972BB3
:10172A000310A20DFF3E031D952B2208FF3A8905DF
:10173A00B72B2408A200A3012308003A0319A62BF9
:10174A00B72B2208003A0319082B013A0319262B52
:10175A00033A0319442B013A0319622B073A031976
:10176A00802BB72B080083120313C801BE1FBE2BA0
:10177A00BF2BD62B3F0884002D3083138000013005
:10178A00C8003B09C4003C09C5003D09C6003E0922
:10179A00C700C40A0319C50A0319C60A0319C70AE6
:1017AA00DE2B3E08C7003D08C6003C08C5003B08C2
:1017BA00C4004008FF3EC900252C831203134908C0
:1017CA003F07C100410884000030A3000030A20096
:1017DA000030A1000A30A0004708A7004608A6006A
:1017EA004508A5004408A4000A168A1118260A12F8
:1017FA008A15831203132008303E831380000030B9
:10180A00B0000030AF000030AE000A30AD0047082B
:10181A00B4004608B3004508B2004408B1000A16ED
:10182A008A11C6260A128A15831203133008C700C2
:10183A002F08C6002E08C5002D08C400FF30C907AE
:10184A004908C100C201C11BC2034208803AC30051
:10185A0080304302031D332C480841020318362CFA
:10186A00372CE22B831203134808CA00532C831225
:10187A0003134A083F07C10041088400303083132C
:10188A000006031D492C4A2C652C4A083F07C10053
:10189A0041088400203080000130CA074008FF3E1A
:1018AA00C100FF3003180030C2004208803A803C71
:1018BA00031D612C41084A02031C642C652C3C2C34
:1018CA008312031340083F07C100410884008313B1
:1018DA008001080083120313200884008317211C47
:1018EA00831322088000840A23088000840A2408BB
:1018FA008000840A250880002008043EB7002108D9
:10190A000318013E003EB800370884008317381CCC
:10191A00831326088000840A27088000840A28087E
:10192A008000840A290880002008083EB7002108A0
:10193A000318013E003EB800370884008317381C9C
:10194A0083132A088000840A2B088000840A2C0842
:10195A008000840A2D08800020080C3EB700210868
:10196A000318013E003EB800370884008317381C6C
:10197A0083132E08800020080D3EB70021080318A3
:10198A00013E003EB800370884008317381C8313D1
:10199A008001840A8001840A8001840A8001200867
:1019AA00113EB70021080318013E003EB80037086F
:1019BA0084008317381C83138001840A8001840AF7
:1019CA008001840A80012008153EB7002108031807
:1019DA00013E003EB800370884008317381C831381
:1019EA008001840A8001840A8001840A8001200817
:1019FA000C3EB70021080318013E003EB800370824
:101A0A0084008317381C83132E0880003308B7001C
:101A1A003408B8003508B9003608BA000A3003108D
:101A2A00B70DB80DB90DBA0DFF3E031D142D2008D0
:101A3A001D3EBB0021080318013E003EBC003B08C6
:101A4A00840083173C1C831337088000840A3808F3
:101A5A008000840A39088000840A3A0880002F0826
:101A6A00B7003008B8003108B9003208BA000A30A5
:101A7A000310B70DB80DB90DBA0DFF3E031D3D2D6C
:101A8A002008193EBB0021080318013E003EBC0095
:101A9A003B08840083173C1C831337088000840AA0
:101AAA0038088000840A39088000840A3A088000CD
:101ABA00080083120313C91B732D4908031D742DD3
:101ACA004808031D742D2E304702031D702DE13086
:101ADA004602031D702D031C732D742D7E2D0030BC
:101AEA0083120313C9000030C8002E30C700E0304B
:101AFA00C60083120313C91B922D4908031D932D97
:101B0A004808031D932D4708031D932D01304602F3
:101B1A00031D8F2D031C922D932DEB2D831203137E
:101B2A006E08A000A101A10A01300A128A15042335
:101B3A000A128A15831603136E0883120313A00070
:101B4A00A10101300A128A1504230A128A150030EB
:101B5A0083120313B0000030AF002E30AE00E03025
:101B6A00AD004908A3004808A2004708A10046089A
:101B7A00A0000030A7000030A6000330A500E8301E
:101B8A00A4000A128A11B4270A128A1583120313AF
:101B9A002308B4002208B3002108B2002008B100CB
:101BAA000A128A1528210A128A15831203132E088B
:101BBA00CB002D08CA004B08BC004A08BB00013004
:101BCA000A128A15C1210A128A156F2E831203136B
:101BDA00C91FF02DF12D4E2E6E08A000A101013073
:101BEA000A128A1504230A128A15831603136E0829
:101BFA0083120313A000A101A10A01300A128A1557
:101C0A0004230A128A15003083120313B00000302D
:101C1A00AF002E30AE00E030AD004609A000470903
:101C2A00A1004809A2004909A300A00A0319A10AB0
:101C3A000319A20A0319A30A0030A7000030A6005C
:101C4A000330A500E830A4000A128A11B4270A1248
:101C5A008A15831203132308B4002208B30021084B
:101C6A00B2002008B1000A128A1528210A128A1520
:101C7A00831203132E08CD002D08CC004D08BC009A
:101C8A004C08BB0001300A128A15C1210A128A15B2
:101C9A006F2E6E08A000A10101300A128A150423D2
:101CAA000A128A15831603136E0883120313A000FF
:101CBA00A10101300A128A1504230A128A1500307A
:101CCA0083120313BB00BC0001300A128A15C1211A
:101CDA000A128A150800013083120313A10080300A
:101CEA00A2000A128A1505200A128A158312031302
:101CFA005008BE004F08BD004E08BC004D08BB008E
:101D0A005A30BF000430C0000A128A15B8230A12DA
:101D1A008A155A3083120313A1000030A2000A1256
:101D2A008A1505200A128A15183083120313A10096
:101D3A008030A2000A128A1505200A128A15F52F88
:101D4A000A168A11E5230A128A1583120313DF0081
:101D5A000A305F06031DB22EB32EE12F6C08AE3E89
:101D6A00840083178001AE30A6001430A7000A163B
:101D7A008A11C5250A128A1583120313E000600826
:101D8A000319C82EC92EEB2E6008033EA6000A12BC
:101D9A008A152D200A128A15831203132608D400E5
:101DAA002708D5000030D51BFF30D600D7005108D0
:101DBA008400540883138000840A55088000840A2A
:101DCA0056088000840A57088000DF2FAE30A6002C
:101DDA001530A7000A168A11C5250A128A15831218
:101DEA000313E00060080319FB2EFC2E202F600865
:101DFA00023EA6000A128A152D200A128A1583129B
:101E0A0003132608D4002708D5000030D51BFF305D
:101E1A00D600D7004B08840083174C1C8313540840
:101E2A008000840A55088000840A56088000840AC3
:101E3A0057088000DF2FAE30A6001E30A7000A1612
:101E4A008A11C5250A128A1583120313E000600855
:101E5A000319302F312F5D2F6008023EA6000A12A7
:101E6A008A152D200A128A15831203132608D40014
:101E7A002708D5000030D51BFF30D600D7004B0805
:101E8A00043ED8004C080318013E003ED900580809
:101E9A0084008317591C831354088000840A550848
:101EAA008000840A56088000840A57088000DF2FC1
:101EBA00AE30A6001B30A7000A168A11C5250A12E1
:101ECA008A1583120313E000600803196D2F6E2F21
:101EDA009A2F6008023EA6000A128A152D200A12BD
:101EEA008A15831203132608D4002708D500003068
:101EFA00D51BFF30D600D7004B08083ED8004C0847
:101F0A000318013E003ED900580884008317591C63
:101F1A00831354088000840A55088000840A5608EE
:101F2A008000840A57088000DF2FAE30A6000F30E9
:101F3A00A7000A168A11C5250A128A1583120313E5
:101F4A00E00060080319AA2FAB2FBD2F6008043EDA
:101F5A00A6000A128A152D200A128A158312031363
:101F6A002608D40052088400540883138000DF2F07
:101F7A00AE30A6000A30A7000A168A11C5250A1231
:101F8A008A1583120313E00060080319CD2FCE2FA0
:101F9A00DF2F6008043EA6000A128A152D200A12B5
:101FAA008A15831203132608D400530884005408A0
:101FBA0083138000EC01F52F0D305F060319E62F1D
:101FCA00E72FF52F1F306C020318EC2FED2FF52F9A
:101FDA006C08AE3E84005F08831780000130EC076E
:101FEA000A168A11A2230A128A15003A031DFE2F25
:101FFA00FF2FA52E0800FF1B0A2883137F188317BB
:10200A000008840A0319FF0A080010308A0004082D
:10201A00840A8207003420344D344F3454344F3408
:10202A0052343A3420340034433441344C343A3450
:10203A000034523455344E343A3400345334503424
:10204A003A3400340D340A34003444343A34003417
:06205A0049343A34003461
:10271C000A168A11B5230A168A1108000A168A119C
:10272C008E230A168A11080064008001840A0406AC
:10273C000319003404069B2B7D087C06031DA72B74
:10274C00A92B0130AA2B0030080083120313A00020
:10275C000C1EB12BB22BAE2B20089900080083164F
:10276C000313811281110108F8390138810083307B
:10277C008312031381000B118B1608000030831297
:10278C000313BE000130BD00C230BC000030BB00E2
:10279C000A168A1173250A168A110800013083164D
:1027AC000313E007003003180130E1070030031871
:1027BC000130E207003003180130E30708008312F0
:1027CC000313A0017D087C060319ED2BEE2BF92BCE
:1027DC007C08103E840083170008A0007C08013E92
:1027EC00FC003F30FC05200808008312031320086E
:1027FC008400831700082106031D052C062C082CC9
:10280C002008112C2008A00A84000008031D0F2C9E
:10281C00102CFB2B003008000B0D0B0D0139831213
:10282C000313A0008B13003083160313EB0000304E
:10283C00EA000030E9000030E80083120313200C9A
:10284C00031C8B1303188B1708000B1D2E2C2F2C1D
:10285C00442C83308312031381000130EB070A30C0
:10286C006B02031C3A2C3B2C432C0A168A11D423E2
:10287C000A168A1183120313EB010B110800831241
:10288C0003132008A2004C2C0130A0072008840060
:10289C000A168A110A200A168A11003A031D572CAF
:1028AC00582C4A2C22082002A000A101A01BA10335
:1028BC0008008B130B130A128A11FD270A168A11B2
:1028CC000A168A1194230A168A110A128A11FF27F2
:1028DC000A168A110A128A11FE270A168A110A167A
:1028EC008A11C4230A168A110B178B1708000A16B3
:1028FC008A112B240A168A110A168A119C240A168C
:10290C008A110A168A11E2240A168A110A168A11E9
:10291C002C270A168A117B08FF007A088A0079088E
:10292C008400780E8300FE0E7E0E090083120313C2
:10293C000C1FA12CA22CBE2C1E08F2008316031314
:10294C001E08F1000E30831203136F020318AF2C14
:10295C00B02CBB2C6F08F0007007903E84007108FF
:10296C0083178000840A720880000E30EF000C136D
:10297C0008008B1383160313630883120313A70039
:10298C0083160313620883120313A6008316031322
:10299C00610883120313A5008316031360088312C6
:1029AC000313A4008B172708A3002608A2002508F0
:1029BC00A1002408A0000800831203138C1EE72C2E
:1029CC00E82C062D981CEB2CEC2CF12C181200008A
:1029DC008312031318161A08F0007D08013EF1004B
:1029EC003F30F10571087C060319FD2CFE2C062DD9
:1029FC007D08103E84007008831780007108FD006C
:102A0C00080083120313A401A501201C0E2D0F2D09
:102A1C00152D2208A4070318A50A2308A5070130C1
:102A2C000310A20DA30DFF3E031D162D0130031044
:102A3C00A10CA00CFF3E031D1D2D20082104031D1D
:102A4C00282D292D0B2D2508A1002408A0000800F5
:102A5C0083120313CD004B08EE004C0883160313AE
:102A6C00EE00831203134B08A000A1014D080A12BB
:102A7C008A1172260A168A11831203134C08A000BD
:102A8C00A1014D080A128A1172260A168A118312A4
:102A9C0003134B08A000A1014D080A128A15042348
:102AAC000A168A11831203134C08A000A1014D08C9
:102ABC000A128A1504230A168A1100308312031392
:102ACC00BE000030BD002730BC001030BB000A1225
:102ADC008A155C220A168A1108008316031318152E
:102AEC00831603178715831203133B08BF003C089A
:102AFC00C0003D08C1003E08C20002300310BF0DEB
:102B0C00C00DC10DC20DFF3E031D842D4208B00047
:102B1C004108AF004008AE003F08AD000130B400E2
:102B2C003130B3002D30B2000030B1000A168A11DA
:102B3C00C6260A168A11831203132D08FF3EC30002
:102B4C002E080318013EFF3EC400430883160313EE
:102B5C009900831203134408831603139A00071772
:102B6C00871783120313981783160313981683126F
:102B7C00031318168C12831603138C160800831279
:102B8C00031327080319CB2DCC2D162E2708A000D4
:102B9C000A168A1145240A168A1183120313210876
:102BAC00AB002008AA00092E2608A0002708A100C7
:102BBC002B08A3002A08A2000A168A116C260A16F2
:102BCC008A118312031320082104031DEE2DEF2D0F
:102BDC00F12D2608172E2608013EA0002708840098
:102BEC000A168A110A200A168A11A800A9012808B7
:102BFC00A1002908A2000A168A11FB230A168A11C1
:102C0C0083120313A600260803190D2E0E2E162E62
:102C1C002608840083170008031D152E162EDA2DA6
:102C2C00003008008312031323082204210420041B
:102C3C000319212E222E632E0130A900302E0130D3
:102C4C00A8000310A00DA10DA20DA30DA80B272EFB
:102C5C000130A907A31F332E342E252E230827025B
:102C6C00031D422E22082602031D422E2108250296
:102C7C00031D422E20082402031C452E462E542EE2
:102C8C002008A4022108031C210FA5022208031C02
:102C9C00220FA6022308031C230FA70201300310E6
:102CAC00A30CA20CA10CA00CFF3E031D552E013051
:102CBC00A902031D622E632E342E2708A3002608BA
:102CCC00A2002508A1002408A000080001308312EE
:102CDC000313A2020030031CA303A302220A031D48
:102CEC007B2E230A031D7B2E7C2E892EA001A10195
:102CFC00C52E0130A0070130A1070130A20200301F
:102D0C00031CA303A30220088400831700080319E3
:102D1C00902E912EB32E210884000A168A110A20B7
:102D2C000A168A11003A03199C2E9D2EB32E2208E6
:102D3C0023040319A22EA32EB32E210884000A16F5
:102D4C008A110A200A168A11A4002008840000089F
:102D5C0024060319B22EB32E7F2E210884000A16E6
:102D6C008A110A200A168A11A4002008840000087F
:102D7C00A50024082502A000A101031CA103080042
:102D8C00003083120313B9000030B8000030B700D4
:102D9C000030B60030082F042E042D040319D72E52
:102DAC00D82E232F0130BA00E62E0130B5000310C7
:102DBC00AD0DAE0DAF0DB00DB50BDD2E0130BA075C
:102DCC00B01FE92EEA2EDB2E0130B5000310B60D34
:102DDC00B70DB80DB90DB50BEC2E30083402031D30
:102DEC00012F2F083302031D012F2E083202031D61
:102DFC00012F2D083102031C042F052F142F2D0831
:102E0C00B1022E08031C2E0FB2022F08031C2F0F29
:102E1C00B3023008031C300FB40236140130031017
:102E2C00B00CAF0CAE0CAD0CFF3E031D152F0130DA
:102E3C00BA02031D222F232FEA2E3908B0003808BE
:102E4C00AF003708AE003608AD0008000B1C2F2F62
:102E5C00302F922F831203130608F70077086806A9
:102E6C00F1007108690503193C2F3D2F8E2F68085E
:102E7C00F0006D0A432F0310F00CFF3E031D412F91
:102E8C007008F3000130F3056808F0006A0A502F4F
:102E9C000310F00CFF3E031D4E2F7008F4000130A0
:102EAC00F4057708F0006D0A5D2F0310F00CFF3E5F
:102EBC00031D5B2F7008F5000130F5057708F00055
:102ECC006A0A6A2F0310F00CFF3E031D682F70086E
:102EDC00F6000130F60576087306F00075087406E6
:102EEC007002F200720883160313E807FF018039A1
:102EFC00031DFF037F0803187F0A031DE9077F08E2
:102F0C0003187F0A031DEA077F0803187F0AEB07E3
:102F1C0077088312E8000B100800003083120313AB
:102F2C00B0000030AF000130AE00EF30AD008316C2
:102F3C0003136B0883120313A300831603136A088D
:102F4C0083120313A200831603136908831203135D
:102F5C00A10083160313680883120313A00000302A
:102F6C00A7000030A6000130A5006830A4000A12AA
:102F7C008A11B4270A168A11831203132308B4008A
:102F8C002208B3002108B2002008B1000A128A15E9
:102F9C0028210A168A11831203133008831603138F
:102FAC00E700831203132F0883160313E600831222
:102FBC0003132E0883160313E500831203132D0845
:102FCC0083160313E400670883120313BF008316F0
:102FDC000313660883120313BE00831603136508DC
:102FEC0083120313BD0083160313640883120313A7
:042FFC00BC0008000D
:04400E00F22CFF3F52
:00000001FF
